{
  "_format": "hh-sol-artifact-1",
  "contractName": "Floppy",
  "sourceName": "contracts/Floppy.sol",
  "abi": [
    {
      "inputs": [],
      "stateMutability": "nonpayable",
      "type": "constructor"
    },
    {
      "anonymous": false,
      "inputs": [
        {
          "indexed": true,
          "internalType": "address",
          "name": "owner",
          "type": "address"
        },
        {
          "indexed": true,
          "internalType": "address",
          "name": "approved",
          "type": "address"
        },
        {
          "indexed": true,
          "internalType": "uint256",
          "name": "tokenId",
          "type": "uint256"
        }
      ],
      "name": "Approval",
      "type": "event"
    },
    {
      "anonymous": false,
      "inputs": [
        {
          "indexed": true,
          "internalType": "address",
          "name": "owner",
          "type": "address"
        },
        {
          "indexed": true,
          "internalType": "address",
          "name": "operator",
          "type": "address"
        },
        {
          "indexed": false,
          "internalType": "bool",
          "name": "approved",
          "type": "bool"
        }
      ],
      "name": "ApprovalForAll",
      "type": "event"
    },
    {
      "anonymous": false,
      "inputs": [
        {
          "indexed": true,
          "internalType": "address",
          "name": "previousOwner",
          "type": "address"
        },
        {
          "indexed": true,
          "internalType": "address",
          "name": "newOwner",
          "type": "address"
        }
      ],
      "name": "OwnershipTransferred",
      "type": "event"
    },
    {
      "anonymous": false,
      "inputs": [
        {
          "indexed": true,
          "internalType": "address",
          "name": "from",
          "type": "address"
        },
        {
          "indexed": true,
          "internalType": "address",
          "name": "to",
          "type": "address"
        },
        {
          "indexed": true,
          "internalType": "uint256",
          "name": "tokenId",
          "type": "uint256"
        }
      ],
      "name": "Transfer",
      "type": "event"
    },
    {
      "inputs": [
        {
          "internalType": "address",
          "name": "to",
          "type": "address"
        },
        {
          "internalType": "uint256",
          "name": "tokenId",
          "type": "uint256"
        }
      ],
      "name": "approve",
      "outputs": [],
      "stateMutability": "nonpayable",
      "type": "function"
    },
    {
      "inputs": [
        {
          "internalType": "address",
          "name": "owner",
          "type": "address"
        }
      ],
      "name": "balanceOf",
      "outputs": [
        {
          "internalType": "uint256",
          "name": "",
          "type": "uint256"
        }
      ],
      "stateMutability": "view",
      "type": "function"
    },
    {
      "inputs": [
        {
          "internalType": "uint256",
          "name": "tokenId",
          "type": "uint256"
        }
      ],
      "name": "getApproved",
      "outputs": [
        {
          "internalType": "address",
          "name": "",
          "type": "address"
        }
      ],
      "stateMutability": "view",
      "type": "function"
    },
    {
      "inputs": [
        {
          "internalType": "address",
          "name": "owner",
          "type": "address"
        },
        {
          "internalType": "address",
          "name": "operator",
          "type": "address"
        }
      ],
      "name": "isApprovedForAll",
      "outputs": [
        {
          "internalType": "bool",
          "name": "",
          "type": "bool"
        }
      ],
      "stateMutability": "view",
      "type": "function"
    },
    {
      "inputs": [],
      "name": "mintRate",
      "outputs": [
        {
          "internalType": "uint256",
          "name": "",
          "type": "uint256"
        }
      ],
      "stateMutability": "view",
      "type": "function"
    },
    {
      "inputs": [],
      "name": "name",
      "outputs": [
        {
          "internalType": "string",
          "name": "",
          "type": "string"
        }
      ],
      "stateMutability": "view",
      "type": "function"
    },
    {
      "inputs": [],
      "name": "owner",
      "outputs": [
        {
          "internalType": "address",
          "name": "",
          "type": "address"
        }
      ],
      "stateMutability": "view",
      "type": "function"
    },
    {
      "inputs": [
        {
          "internalType": "uint256",
          "name": "tokenId",
          "type": "uint256"
        }
      ],
      "name": "ownerOf",
      "outputs": [
        {
          "internalType": "address",
          "name": "",
          "type": "address"
        }
      ],
      "stateMutability": "view",
      "type": "function"
    },
    {
      "inputs": [],
      "name": "renounceOwnership",
      "outputs": [],
      "stateMutability": "nonpayable",
      "type": "function"
    },
    {
      "inputs": [
        {
          "internalType": "address",
          "name": "to",
          "type": "address"
        }
      ],
      "name": "safeMint",
      "outputs": [],
      "stateMutability": "payable",
      "type": "function"
    },
    {
      "inputs": [
        {
          "internalType": "address",
          "name": "from",
          "type": "address"
        },
        {
          "internalType": "address",
          "name": "to",
          "type": "address"
        },
        {
          "internalType": "uint256",
          "name": "tokenId",
          "type": "uint256"
        }
      ],
      "name": "safeTransferFrom",
      "outputs": [],
      "stateMutability": "nonpayable",
      "type": "function"
    },
    {
      "inputs": [
        {
          "internalType": "address",
          "name": "from",
          "type": "address"
        },
        {
          "internalType": "address",
          "name": "to",
          "type": "address"
        },
        {
          "internalType": "uint256",
          "name": "tokenId",
          "type": "uint256"
        },
        {
          "internalType": "bytes",
          "name": "_data",
          "type": "bytes"
        }
      ],
      "name": "safeTransferFrom",
      "outputs": [],
      "stateMutability": "nonpayable",
      "type": "function"
    },
    {
      "inputs": [
        {
          "internalType": "address",
          "name": "operator",
          "type": "address"
        },
        {
          "internalType": "bool",
          "name": "approved",
          "type": "bool"
        }
      ],
      "name": "setApprovalForAll",
      "outputs": [],
      "stateMutability": "nonpayable",
      "type": "function"
    },
    {
      "inputs": [
        {
          "internalType": "bytes4",
          "name": "interfaceId",
          "type": "bytes4"
        }
      ],
      "name": "supportsInterface",
      "outputs": [
        {
          "internalType": "bool",
          "name": "",
          "type": "bool"
        }
      ],
      "stateMutability": "view",
      "type": "function"
    },
    {
      "inputs": [],
      "name": "symbol",
      "outputs": [
        {
          "internalType": "string",
          "name": "",
          "type": "string"
        }
      ],
      "stateMutability": "view",
      "type": "function"
    },
    {
      "inputs": [
        {
          "internalType": "uint256",
          "name": "index",
          "type": "uint256"
        }
      ],
      "name": "tokenByIndex",
      "outputs": [
        {
          "internalType": "uint256",
          "name": "",
          "type": "uint256"
        }
      ],
      "stateMutability": "view",
      "type": "function"
    },
    {
      "inputs": [
        {
          "internalType": "address",
          "name": "owner",
          "type": "address"
        },
        {
          "internalType": "uint256",
          "name": "index",
          "type": "uint256"
        }
      ],
      "name": "tokenOfOwnerByIndex",
      "outputs": [
        {
          "internalType": "uint256",
          "name": "",
          "type": "uint256"
        }
      ],
      "stateMutability": "view",
      "type": "function"
    },
    {
      "inputs": [
        {
          "internalType": "uint256",
          "name": "tokenId",
          "type": "uint256"
        }
      ],
      "name": "tokenURI",
      "outputs": [
        {
          "internalType": "string",
          "name": "",
          "type": "string"
        }
      ],
      "stateMutability": "view",
      "type": "function"
    },
    {
      "inputs": [],
      "name": "totalSupply",
      "outputs": [
        {
          "internalType": "uint256",
          "name": "",
          "type": "uint256"
        }
      ],
      "stateMutability": "view",
      "type": "function"
    },
    {
      "inputs": [
        {
          "internalType": "address",
          "name": "from",
          "type": "address"
        },
        {
          "internalType": "address",
          "name": "to",
          "type": "address"
        },
        {
          "internalType": "uint256",
          "name": "tokenId",
          "type": "uint256"
        }
      ],
      "name": "transferFrom",
      "outputs": [],
      "stateMutability": "nonpayable",
      "type": "function"
    },
    {
      "inputs": [
        {
          "internalType": "address",
          "name": "newOwner",
          "type": "address"
        }
      ],
      "name": "transferOwnership",
      "outputs": [],
      "stateMutability": "nonpayable",
      "type": "function"
    }
  ],
  "bytecode": "0x6080604052662386f26fc10000600c553480156200001c57600080fd5b506040518060400160405280600681526020017f466c6f70707900000000000000000000000000000000000000000000000000008152506040518060400160405280600481526020017f464c5059000000000000000000000000000000000000000000000000000000008152508160009080519060200190620000a1929190620001b1565b508060019080519060200190620000ba929190620001b1565b505050620000dd620000d1620000e360201b60201c565b620000eb60201b60201c565b620002c6565b600033905090565b6000600a60009054906101000a900473ffffffffffffffffffffffffffffffffffffffff16905081600a60006101000a81548173ffffffffffffffffffffffffffffffffffffffff021916908373ffffffffffffffffffffffffffffffffffffffff1602179055508173ffffffffffffffffffffffffffffffffffffffff168173ffffffffffffffffffffffffffffffffffffffff167f8be0079c531659141344cd1fd0a4f28419497f9722a3daafe3b4186f6b6457e060405160405180910390a35050565b828054620001bf9062000261565b90600052602060002090601f016020900481019282620001e357600085556200022f565b82601f10620001fe57805160ff19168380011785556200022f565b828001600101855582156200022f579182015b828111156200022e57825182559160200191906001019062000211565b5b5090506200023e919062000242565b5090565b5b808211156200025d57600081600090555060010162000243565b5090565b600060028204905060018216806200027a57607f821691505b6020821081141562000291576200029062000297565b5b50919050565b7f4e487b7100000000000000000000000000000000000000000000000000000000600052602260045260246000fd5b61356280620002d66000396000f3fe60806040526004361061012a5760003560e01c80636352211e116100ab578063a22cb4651161006f578063a22cb465146103f7578063b88d4fde14610420578063c87b56dd14610449578063ca0dcf1614610486578063e985e9c5146104b1578063f2fde38b146104ee5761012a565b80636352211e1461031057806370a082311461034d578063715018a61461038a5780638da5cb5b146103a157806395d89b41146103cc5761012a565b806323b872dd116100f257806323b872dd146102285780632f745c591461025157806340d097c31461028e57806342842e0e146102aa5780634f6ccce7146102d35761012a565b806301ffc9a71461012f57806306fdde031461016c578063081812fc14610197578063095ea7b3146101d457806318160ddd146101fd575b600080fd5b34801561013b57600080fd5b50610156600480360381019061015191906124a0565b610517565b604051610163919061290f565b60405180910390f35b34801561017857600080fd5b50610181610529565b60405161018e919061292a565b60405180910390f35b3480156101a357600080fd5b506101be60048036038101906101b991906124f2565b6105bb565b6040516101cb91906128a8565b60405180910390f35b3480156101e057600080fd5b506101fb60048036038101906101f69190612464565b610640565b005b34801561020957600080fd5b50610212610758565b60405161021f9190612bac565b60405180910390f35b34801561023457600080fd5b5061024f600480360381019061024a919061235e565b610765565b005b34801561025d57600080fd5b5061027860048036038101906102739190612464565b6107c5565b6040516102859190612bac565b60405180910390f35b6102a860048036038101906102a391906122f9565b61086a565b005b3480156102b657600080fd5b506102d160048036038101906102cc919061235e565b6108d5565b005b3480156102df57600080fd5b506102fa60048036038101906102f591906124f2565b6108f5565b6040516103079190612bac565b60405180910390f35b34801561031c57600080fd5b50610337600480360381019061033291906124f2565b61098c565b60405161034491906128a8565b60405180910390f35b34801561035957600080fd5b50610374600480360381019061036f91906122f9565b610a3e565b6040516103819190612bac565b60405180910390f35b34801561039657600080fd5b5061039f610af6565b005b3480156103ad57600080fd5b506103b6610b7e565b6040516103c391906128a8565b60405180910390f35b3480156103d857600080fd5b506103e1610ba8565b6040516103ee919061292a565b60405180910390f35b34801561040357600080fd5b5061041e60048036038101906104199190612428565b610c3a565b005b34801561042c57600080fd5b50610447600480360381019061044291906123ad565b610dbb565b005b34801561045557600080fd5b50610470600480360381019061046b91906124f2565b610e1d565b60405161047d919061292a565b60405180910390f35b34801561049257600080fd5b5061049b610ec4565b6040516104a89190612bac565b60405180910390f35b3480156104bd57600080fd5b506104d860048036038101906104d39190612322565b610eca565b6040516104e5919061290f565b60405180910390f35b3480156104fa57600080fd5b50610515600480360381019061051091906122f9565b610f5e565b005b600061052282611056565b9050919050565b60606000805461053890612dd1565b80601f016020809104026020016040519081016040528092919081815260200182805461056490612dd1565b80156105b15780601f10610586576101008083540402835291602001916105b1565b820191906000526020600020905b81548152906001019060200180831161059457829003601f168201915b5050505050905090565b60006105c6826110d0565b610605576040517f08c379a00000000000000000000000000000000000000000000000000000000081526004016105fc90612aac565b60405180910390fd5b6004600083815260200190815260200160002060009054906101000a900473ffffffffffffffffffffffffffffffffffffffff169050919050565b600061064b8261098c565b90508073ffffffffffffffffffffffffffffffffffffffff168373ffffffffffffffffffffffffffffffffffffffff1614156106bc576040517f08c379a00000000000000000000000000000000000000000000000000000000081526004016106b390612b2c565b60405180910390fd5b8073ffffffffffffffffffffffffffffffffffffffff166106db61113c565b73ffffffffffffffffffffffffffffffffffffffff16148061070a57506107098161070461113c565b610eca565b5b610749576040517f08c379a000000000000000000000000000000000000000000000000000000000815260040161074090612a2c565b60405180910390fd5b6107538383611144565b505050565b6000600880549050905090565b61077661077061113c565b826111fd565b6107b5576040517f08c379a00000000000000000000000000000000000000000000000000000000081526004016107ac90612b4c565b60405180910390fd5b6107c08383836112db565b505050565b60006107d083610a3e565b8210610811576040517f08c379a00000000000000000000000000000000000000000000000000000000081526004016108089061294c565b60405180910390fd5b600660008473ffffffffffffffffffffffffffffffffffffffff1673ffffffffffffffffffffffffffffffffffffffff168152602001908152602001600020600083815260200190815260200160002054905092915050565b600c543410156108af576040517f08c379a00000000000000000000000000000000000000000000000000000000081526004016108a690612b8c565b60405180910390fd5b60006108bb600b611537565b90506108c7600b611545565b6108d1828261155b565b5050565b6108f083838360405180602001604052806000815250610dbb565b505050565b60006108ff610758565b8210610940576040517f08c379a000000000000000000000000000000000000000000000000000000000815260040161093790612b6c565b60405180910390fd5b6008828154811061097a577f4e487b7100000000000000000000000000000000000000000000000000000000600052603260045260246000fd5b90600052602060002001549050919050565b6000806002600084815260200190815260200160002060009054906101000a900473ffffffffffffffffffffffffffffffffffffffff169050600073ffffffffffffffffffffffffffffffffffffffff168173ffffffffffffffffffffffffffffffffffffffff161415610a35576040517f08c379a0000000000000000000000000000000000000000000000000000000008152600401610a2c90612a6c565b60405180910390fd5b80915050919050565b60008073ffffffffffffffffffffffffffffffffffffffff168273ffffffffffffffffffffffffffffffffffffffff161415610aaf576040517f08c379a0000000000000000000000000000000000000000000000000000000008152600401610aa690612a4c565b60405180910390fd5b600360008373ffffffffffffffffffffffffffffffffffffffff1673ffffffffffffffffffffffffffffffffffffffff168152602001908152602001600020549050919050565b610afe61113c565b73ffffffffffffffffffffffffffffffffffffffff16610b1c610b7e565b73ffffffffffffffffffffffffffffffffffffffff1614610b72576040517f08c379a0000000000000000000000000000000000000000000000000000000008152600401610b6990612acc565b60405180910390fd5b610b7c6000611579565b565b6000600a60009054906101000a900473ffffffffffffffffffffffffffffffffffffffff16905090565b606060018054610bb790612dd1565b80601f0160208091040260200160405190810160405280929190818152602001828054610be390612dd1565b8015610c305780601f10610c0557610100808354040283529160200191610c30565b820191906000526020600020905b815481529060010190602001808311610c1357829003601f168201915b5050505050905090565b610c4261113c565b73ffffffffffffffffffffffffffffffffffffffff168273ffffffffffffffffffffffffffffffffffffffff161415610cb0576040517f08c379a0000000000000000000000000000000000000000000000000000000008152600401610ca7906129ec565b60405180910390fd5b8060056000610cbd61113c565b73ffffffffffffffffffffffffffffffffffffffff1673ffffffffffffffffffffffffffffffffffffffff16815260200190815260200160002060008473ffffffffffffffffffffffffffffffffffffffff1673ffffffffffffffffffffffffffffffffffffffff16815260200190815260200160002060006101000a81548160ff0219169083151502179055508173ffffffffffffffffffffffffffffffffffffffff16610d6a61113c565b73ffffffffffffffffffffffffffffffffffffffff167f17307eab39ab6107e8899845ad3d59bd9653f200f220920489ca2b5937696c3183604051610daf919061290f565b60405180910390a35050565b610dcc610dc661113c565b836111fd565b610e0b576040517f08c379a0000000000000000000000000000000000000000000000000000000008152600401610e0290612b4c565b60405180910390fd5b610e178484848461163f565b50505050565b6060610e28826110d0565b610e67576040517f08c379a0000000000000000000000000000000000000000000000000000000008152600401610e5e90612b0c565b60405180910390fd5b6000610e7161169b565b90506000815111610e915760405180602001604052806000815250610ebc565b80610e9b846116bb565b604051602001610eac929190612884565b6040516020818303038152906040525b915050919050565b600c5481565b6000600560008473ffffffffffffffffffffffffffffffffffffffff1673ffffffffffffffffffffffffffffffffffffffff16815260200190815260200160002060008373ffffffffffffffffffffffffffffffffffffffff1673ffffffffffffffffffffffffffffffffffffffff16815260200190815260200160002060009054906101000a900460ff16905092915050565b610f6661113c565b73ffffffffffffffffffffffffffffffffffffffff16610f84610b7e565b73ffffffffffffffffffffffffffffffffffffffff1614610fda576040517f08c379a0000000000000000000000000000000000000000000000000000000008152600401610fd190612acc565b60405180910390fd5b600073ffffffffffffffffffffffffffffffffffffffff168173ffffffffffffffffffffffffffffffffffffffff16141561104a576040517f08c379a00000000000000000000000000000000000000000000000000000000081526004016110419061298c565b60405180910390fd5b61105381611579565b50565b60007f780e9d63000000000000000000000000000000000000000000000000000000007bffffffffffffffffffffffffffffffffffffffffffffffffffffffff1916827bffffffffffffffffffffffffffffffffffffffffffffffffffffffff191614806110c957506110c882611868565b5b9050919050565b60008073ffffffffffffffffffffffffffffffffffffffff166002600084815260200190815260200160002060009054906101000a900473ffffffffffffffffffffffffffffffffffffffff1673ffffffffffffffffffffffffffffffffffffffff1614159050919050565b600033905090565b816004600083815260200190815260200160002060006101000a81548173ffffffffffffffffffffffffffffffffffffffff021916908373ffffffffffffffffffffffffffffffffffffffff160217905550808273ffffffffffffffffffffffffffffffffffffffff166111b78361098c565b73ffffffffffffffffffffffffffffffffffffffff167f8c5be1e5ebec7d5bd14f71427d1e84f3dd0314c0f7b2291e5b200ac8c7c3b92560405160405180910390a45050565b6000611208826110d0565b611247576040517f08c379a000000000000000000000000000000000000000000000000000000000815260040161123e90612a0c565b60405180910390fd5b60006112528361098c565b90508073ffffffffffffffffffffffffffffffffffffffff168473ffffffffffffffffffffffffffffffffffffffff1614806112c157508373ffffffffffffffffffffffffffffffffffffffff166112a9846105bb565b73ffffffffffffffffffffffffffffffffffffffff16145b806112d257506112d18185610eca565b5b91505092915050565b8273ffffffffffffffffffffffffffffffffffffffff166112fb8261098c565b73ffffffffffffffffffffffffffffffffffffffff1614611351576040517f08c379a000000000000000000000000000000000000000000000000000000000815260040161134890612aec565b60405180910390fd5b600073ffffffffffffffffffffffffffffffffffffffff168273ffffffffffffffffffffffffffffffffffffffff1614156113c1576040517f08c379a00000000000000000000000000000000000000000000000000000000081526004016113b8906129cc565b60405180910390fd5b6113cc83838361194a565b6113d7600082611144565b6001600360008573ffffffffffffffffffffffffffffffffffffffff1673ffffffffffffffffffffffffffffffffffffffff16815260200190815260200160002060008282546114279190612ce7565b925050819055506001600360008473ffffffffffffffffffffffffffffffffffffffff1673ffffffffffffffffffffffffffffffffffffffff168152602001908152602001600020600082825461147e9190612c60565b92505081905550816002600083815260200190815260200160002060006101000a81548173ffffffffffffffffffffffffffffffffffffffff021916908373ffffffffffffffffffffffffffffffffffffffff160217905550808273ffffffffffffffffffffffffffffffffffffffff168473ffffffffffffffffffffffffffffffffffffffff167fddf252ad1be2c89b69c2b068fc378daa952ba7f163c4a11628f55a4df523b3ef60405160405180910390a4505050565b600081600001549050919050565b6001816000016000828254019250508190555050565b61157582826040518060200160405280600081525061195a565b5050565b6000600a60009054906101000a900473ffffffffffffffffffffffffffffffffffffffff16905081600a60006101000a81548173ffffffffffffffffffffffffffffffffffffffff021916908373ffffffffffffffffffffffffffffffffffffffff1602179055508173ffffffffffffffffffffffffffffffffffffffff168173ffffffffffffffffffffffffffffffffffffffff167f8be0079c531659141344cd1fd0a4f28419497f9722a3daafe3b4186f6b6457e060405160405180910390a35050565b61164a8484846112db565b611656848484846119b5565b611695576040517f08c379a000000000000000000000000000000000000000000000000000000000815260040161168c9061296c565b60405180910390fd5b50505050565b60606040518060600160405280603681526020016134f760369139905090565b60606000821415611703576040518060400160405280600181526020017f30000000000000000000000000000000000000000000000000000000000000008152509050611863565b600082905060005b6000821461173557808061171e90612e34565b915050600a8261172e9190612cb6565b915061170b565b60008167ffffffffffffffff811115611777577f4e487b7100000000000000000000000000000000000000000000000000000000600052604160045260246000fd5b6040519080825280601f01601f1916602001820160405280156117a95781602001600182028036833780820191505090505b5090505b6000851461185c576001826117c29190612ce7565b9150600a856117d19190612e7d565b60306117dd9190612c60565b60f81b818381518110611819577f4e487b7100000000000000000000000000000000000000000000000000000000600052603260045260246000fd5b60200101907effffffffffffffffffffffffffffffffffffffffffffffffffffffffffffff1916908160001a905350600a856118559190612cb6565b94506117ad565b8093505050505b919050565b60007f80ac58cd000000000000000000000000000000000000000000000000000000007bffffffffffffffffffffffffffffffffffffffffffffffffffffffff1916827bffffffffffffffffffffffffffffffffffffffffffffffffffffffff1916148061193357507f5b5e139f000000000000000000000000000000000000000000000000000000007bffffffffffffffffffffffffffffffffffffffffffffffffffffffff1916827bffffffffffffffffffffffffffffffffffffffffffffffffffffffff1916145b80611943575061194282611b4c565b5b9050919050565b611955838383611bb6565b505050565b6119648383611cca565b61197160008484846119b5565b6119b0576040517f08c379a00000000000000000000000000000000000000000000000000000000081526004016119a79061296c565b60405180910390fd5b505050565b60006119d68473ffffffffffffffffffffffffffffffffffffffff16611e98565b15611b3f578373ffffffffffffffffffffffffffffffffffffffff1663150b7a026119ff61113c565b8786866040518563ffffffff1660e01b8152600401611a2194939291906128c3565b602060405180830381600087803b158015611a3b57600080fd5b505af1925050508015611a6c57506040513d601f19601f82011682018060405250810190611a6991906124c9565b60015b611aef573d8060008114611a9c576040519150601f19603f3d011682016040523d82523d6000602084013e611aa1565b606091505b50600081511415611ae7576040517f08c379a0000000000000000000000000000000000000000000000000000000008152600401611ade9061296c565b60405180910390fd5b805181602001fd5b63150b7a0260e01b7bffffffffffffffffffffffffffffffffffffffffffffffffffffffff1916817bffffffffffffffffffffffffffffffffffffffffffffffffffffffff191614915050611b44565b600190505b949350505050565b60007f01ffc9a7000000000000000000000000000000000000000000000000000000007bffffffffffffffffffffffffffffffffffffffffffffffffffffffff1916827bffffffffffffffffffffffffffffffffffffffffffffffffffffffff1916149050919050565b611bc1838383611eab565b600073ffffffffffffffffffffffffffffffffffffffff168373ffffffffffffffffffffffffffffffffffffffff161415611c0457611bff81611eb0565b611c43565b8173ffffffffffffffffffffffffffffffffffffffff168373ffffffffffffffffffffffffffffffffffffffff1614611c4257611c418382611ef9565b5b5b600073ffffffffffffffffffffffffffffffffffffffff168273ffffffffffffffffffffffffffffffffffffffff161415611c8657611c8181612066565b611cc5565b8273ffffffffffffffffffffffffffffffffffffffff168273ffffffffffffffffffffffffffffffffffffffff1614611cc457611cc382826121a9565b5b5b505050565b600073ffffffffffffffffffffffffffffffffffffffff168273ffffffffffffffffffffffffffffffffffffffff161415611d3a576040517f08c379a0000000000000000000000000000000000000000000000000000000008152600401611d3190612a8c565b60405180910390fd5b611d43816110d0565b15611d83576040517f08c379a0000000000000000000000000000000000000000000000000000000008152600401611d7a906129ac565b60405180910390fd5b611d8f6000838361194a565b6001600360008473ffffffffffffffffffffffffffffffffffffffff1673ffffffffffffffffffffffffffffffffffffffff1681526020019081526020016000206000828254611ddf9190612c60565b92505081905550816002600083815260200190815260200160002060006101000a81548173ffffffffffffffffffffffffffffffffffffffff021916908373ffffffffffffffffffffffffffffffffffffffff160217905550808273ffffffffffffffffffffffffffffffffffffffff16600073ffffffffffffffffffffffffffffffffffffffff167fddf252ad1be2c89b69c2b068fc378daa952ba7f163c4a11628f55a4df523b3ef60405160405180910390a45050565b600080823b905060008111915050919050565b505050565b6008805490506009600083815260200190815260200160002081905550600881908060018154018082558091505060019003906000526020600020016000909190919091505550565b60006001611f0684610a3e565b611f109190612ce7565b9050600060076000848152602001908152602001600020549050818114611ff5576000600660008673ffffffffffffffffffffffffffffffffffffffff1673ffffffffffffffffffffffffffffffffffffffff168152602001908152602001600020600084815260200190815260200160002054905080600660008773ffffffffffffffffffffffffffffffffffffffff1673ffffffffffffffffffffffffffffffffffffffff168152602001908152602001600020600084815260200190815260200160002081905550816007600083815260200190815260200160002081905550505b6007600084815260200190815260200160002060009055600660008573ffffffffffffffffffffffffffffffffffffffff1673ffffffffffffffffffffffffffffffffffffffff16815260200190815260200160002060008381526020019081526020016000206000905550505050565b6000600160088054905061207a9190612ce7565b90506000600960008481526020019081526020016000205490506000600883815481106120d0577f4e487b7100000000000000000000000000000000000000000000000000000000600052603260045260246000fd5b906000526020600020015490508060088381548110612118577f4e487b7100000000000000000000000000000000000000000000000000000000600052603260045260246000fd5b90600052602060002001819055508160096000838152602001908152602001600020819055506009600085815260200190815260200160002060009055600880548061218d577f4e487b7100000000000000000000000000000000000000000000000000000000600052603160045260246000fd5b6001900381819060005260206000200160009055905550505050565b60006121b483610a3e565b905081600660008573ffffffffffffffffffffffffffffffffffffffff1673ffffffffffffffffffffffffffffffffffffffff168152602001908152602001600020600083815260200190815260200160002081905550806007600084815260200190815260200160002081905550505050565b600061223b61223684612bec565b612bc7565b90508281526020810184848401111561225357600080fd5b61225e848285612d8f565b509392505050565b6000813590506122758161349a565b92915050565b60008135905061228a816134b1565b92915050565b60008135905061229f816134c8565b92915050565b6000815190506122b4816134c8565b92915050565b600082601f8301126122cb57600080fd5b81356122db848260208601612228565b91505092915050565b6000813590506122f3816134df565b92915050565b60006020828403121561230b57600080fd5b600061231984828501612266565b91505092915050565b6000806040838503121561233557600080fd5b600061234385828601612266565b925050602061235485828601612266565b9150509250929050565b60008060006060848603121561237357600080fd5b600061238186828701612266565b935050602061239286828701612266565b92505060406123a3868287016122e4565b9150509250925092565b600080600080608085870312156123c357600080fd5b60006123d187828801612266565b94505060206123e287828801612266565b93505060406123f3878288016122e4565b925050606085013567ffffffffffffffff81111561241057600080fd5b61241c878288016122ba565b91505092959194509250565b6000806040838503121561243b57600080fd5b600061244985828601612266565b925050602061245a8582860161227b565b9150509250929050565b6000806040838503121561247757600080fd5b600061248585828601612266565b9250506020612496858286016122e4565b9150509250929050565b6000602082840312156124b257600080fd5b60006124c084828501612290565b91505092915050565b6000602082840312156124db57600080fd5b60006124e9848285016122a5565b91505092915050565b60006020828403121561250457600080fd5b6000612512848285016122e4565b91505092915050565b61252481612d1b565b82525050565b61253381612d2d565b82525050565b600061254482612c1d565b61254e8185612c33565b935061255e818560208601612d9e565b61256781612f6a565b840191505092915050565b600061257d82612c28565b6125878185612c44565b9350612597818560208601612d9e565b6125a081612f6a565b840191505092915050565b60006125b682612c28565b6125c08185612c55565b93506125d0818560208601612d9e565b80840191505092915050565b60006125e9602b83612c44565b91506125f482612f7b565b604082019050919050565b600061260c603283612c44565b915061261782612fca565b604082019050919050565b600061262f602683612c44565b915061263a82613019565b604082019050919050565b6000612652601c83612c44565b915061265d82613068565b602082019050919050565b6000612675602483612c44565b915061268082613091565b604082019050919050565b6000612698601983612c44565b91506126a3826130e0565b602082019050919050565b60006126bb602c83612c44565b91506126c682613109565b604082019050919050565b60006126de603883612c44565b91506126e982613158565b604082019050919050565b6000612701602a83612c44565b915061270c826131a7565b604082019050919050565b6000612724602983612c44565b915061272f826131f6565b604082019050919050565b6000612747602083612c44565b915061275282613245565b602082019050919050565b600061276a602c83612c44565b91506127758261326e565b604082019050919050565b600061278d602083612c44565b9150612798826132bd565b602082019050919050565b60006127b0602983612c44565b91506127bb826132e6565b604082019050919050565b60006127d3602f83612c44565b91506127de82613335565b604082019050919050565b60006127f6602183612c44565b915061280182613384565b604082019050919050565b6000612819603183612c44565b9150612824826133d3565b604082019050919050565b600061283c602c83612c44565b915061284782613422565b604082019050919050565b600061285f601983612c44565b915061286a82613471565b602082019050919050565b61287e81612d85565b82525050565b600061289082856125ab565b915061289c82846125ab565b91508190509392505050565b60006020820190506128bd600083018461251b565b92915050565b60006080820190506128d8600083018761251b565b6128e5602083018661251b565b6128f26040830185612875565b81810360608301526129048184612539565b905095945050505050565b6000602082019050612924600083018461252a565b92915050565b600060208201905081810360008301526129448184612572565b905092915050565b60006020820190508181036000830152612965816125dc565b9050919050565b60006020820190508181036000830152612985816125ff565b9050919050565b600060208201905081810360008301526129a581612622565b9050919050565b600060208201905081810360008301526129c581612645565b9050919050565b600060208201905081810360008301526129e581612668565b9050919050565b60006020820190508181036000830152612a058161268b565b9050919050565b60006020820190508181036000830152612a25816126ae565b9050919050565b60006020820190508181036000830152612a45816126d1565b9050919050565b60006020820190508181036000830152612a65816126f4565b9050919050565b60006020820190508181036000830152612a8581612717565b9050919050565b60006020820190508181036000830152612aa58161273a565b9050919050565b60006020820190508181036000830152612ac58161275d565b9050919050565b60006020820190508181036000830152612ae581612780565b9050919050565b60006020820190508181036000830152612b05816127a3565b9050919050565b60006020820190508181036000830152612b25816127c6565b9050919050565b60006020820190508181036000830152612b45816127e9565b9050919050565b60006020820190508181036000830152612b658161280c565b9050919050565b60006020820190508181036000830152612b858161282f565b9050919050565b60006020820190508181036000830152612ba581612852565b9050919050565b6000602082019050612bc16000830184612875565b92915050565b6000612bd1612be2565b9050612bdd8282612e03565b919050565b6000604051905090565b600067ffffffffffffffff821115612c0757612c06612f3b565b5b612c1082612f6a565b9050602081019050919050565b600081519050919050565b600081519050919050565b600082825260208201905092915050565b600082825260208201905092915050565b600081905092915050565b6000612c6b82612d85565b9150612c7683612d85565b9250827fffffffffffffffffffffffffffffffffffffffffffffffffffffffffffffffff03821115612cab57612caa612eae565b5b828201905092915050565b6000612cc182612d85565b9150612ccc83612d85565b925082612cdc57612cdb612edd565b5b828204905092915050565b6000612cf282612d85565b9150612cfd83612d85565b925082821015612d1057612d0f612eae565b5b828203905092915050565b6000612d2682612d65565b9050919050565b60008115159050919050565b60007fffffffff0000000000000000000000000000000000000000000000000000000082169050919050565b600073ffffffffffffffffffffffffffffffffffffffff82169050919050565b6000819050919050565b82818337600083830152505050565b60005b83811015612dbc578082015181840152602081019050612da1565b83811115612dcb576000848401525b50505050565b60006002820490506001821680612de957607f821691505b60208210811415612dfd57612dfc612f0c565b5b50919050565b612e0c82612f6a565b810181811067ffffffffffffffff82111715612e2b57612e2a612f3b565b5b80604052505050565b6000612e3f82612d85565b91507fffffffffffffffffffffffffffffffffffffffffffffffffffffffffffffffff821415612e7257612e71612eae565b5b600182019050919050565b6000612e8882612d85565b9150612e9383612d85565b925082612ea357612ea2612edd565b5b828206905092915050565b7f4e487b7100000000000000000000000000000000000000000000000000000000600052601160045260246000fd5b7f4e487b7100000000000000000000000000000000000000000000000000000000600052601260045260246000fd5b7f4e487b7100000000000000000000000000000000000000000000000000000000600052602260045260246000fd5b7f4e487b7100000000000000000000000000000000000000000000000000000000600052604160045260246000fd5b6000601f19601f8301169050919050565b7f455243373231456e756d657261626c653a206f776e657220696e646578206f7560008201527f74206f6620626f756e6473000000000000000000000000000000000000000000602082015250565b7f4552433732313a207472616e7366657220746f206e6f6e20455243373231526560008201527f63656976657220696d706c656d656e7465720000000000000000000000000000602082015250565b7f4f776e61626c653a206e6577206f776e657220697320746865207a65726f206160008201527f6464726573730000000000000000000000000000000000000000000000000000602082015250565b7f4552433732313a20746f6b656e20616c7265616479206d696e74656400000000600082015250565b7f4552433732313a207472616e7366657220746f20746865207a65726f2061646460008201527f7265737300000000000000000000000000000000000000000000000000000000602082015250565b7f4552433732313a20617070726f766520746f2063616c6c657200000000000000600082015250565b7f4552433732313a206f70657261746f7220717565727920666f72206e6f6e657860008201527f697374656e7420746f6b656e0000000000000000000000000000000000000000602082015250565b7f4552433732313a20617070726f76652063616c6c6572206973206e6f74206f7760008201527f6e6572206e6f7220617070726f76656420666f7220616c6c0000000000000000602082015250565b7f4552433732313a2062616c616e636520717565727920666f7220746865207a6560008201527f726f206164647265737300000000000000000000000000000000000000000000602082015250565b7f4552433732313a206f776e657220717565727920666f72206e6f6e657869737460008201527f656e7420746f6b656e0000000000000000000000000000000000000000000000602082015250565b7f4552433732313a206d696e7420746f20746865207a65726f2061646472657373600082015250565b7f4552433732313a20617070726f76656420717565727920666f72206e6f6e657860008201527f697374656e7420746f6b656e0000000000000000000000000000000000000000602082015250565b7f4f776e61626c653a2063616c6c6572206973206e6f7420746865206f776e6572600082015250565b7f4552433732313a207472616e73666572206f6620746f6b656e2074686174206960008201527f73206e6f74206f776e0000000000000000000000000000000000000000000000602082015250565b7f4552433732314d657461646174613a2055524920717565727920666f72206e6f60008201527f6e6578697374656e7420746f6b656e0000000000000000000000000000000000602082015250565b7f4552433732313a20617070726f76616c20746f2063757272656e74206f776e6560008201527f7200000000000000000000000000000000000000000000000000000000000000602082015250565b7f4552433732313a207472616e736665722063616c6c6572206973206e6f74206f60008201527f776e6572206e6f7220617070726f766564000000000000000000000000000000602082015250565b7f455243373231456e756d657261626c653a20676c6f62616c20696e646578206f60008201527f7574206f6620626f756e64730000000000000000000000000000000000000000602082015250565b7f746865206d696e696d756d20707269636520697320302e303100000000000000600082015250565b6134a381612d1b565b81146134ae57600080fd5b50565b6134ba81612d2d565b81146134c557600080fd5b50565b6134d181612d39565b81146134dc57600080fd5b50565b6134e881612d85565b81146134f357600080fd5b5056fe697066733a2f2f516d51726b7477693453795a3851705a564e6239797946364a326f5372337a784b5276584748623367414d7662392fa264697066735822122016364c50b3aa88ec4c62162572c998a747489dc8ae0b5fe2f239ca7f1aff785c64736f6c63430008020033",
  "linkReferences": {},
  "deployedLinkReferences": {}
}