{
  "_format": "hh-sol-artifact-1",
  "contractName": "Floppy",
  "sourceName": "contracts/Floppy.sol",
  "abi": [
    {
      "inputs": [],
      "stateMutability": "nonpayable",
      "type": "constructor"
    },
    {
      "anonymous": false,
      "inputs": [
        {
          "indexed": true,
          "internalType": "address",
          "name": "owner",
          "type": "address"
        },
        {
          "indexed": true,
          "internalType": "address",
          "name": "approved",
          "type": "address"
        },
        {
          "indexed": true,
          "internalType": "uint256",
          "name": "tokenId",
          "type": "uint256"
        }
      ],
      "name": "Approval",
      "type": "event"
    },
    {
      "anonymous": false,
      "inputs": [
        {
          "indexed": true,
          "internalType": "address",
          "name": "owner",
          "type": "address"
        },
        {
          "indexed": true,
          "internalType": "address",
          "name": "operator",
          "type": "address"
        },
        {
          "indexed": false,
          "internalType": "bool",
          "name": "approved",
          "type": "bool"
        }
      ],
      "name": "ApprovalForAll",
      "type": "event"
    },
    {
      "anonymous": false,
      "inputs": [
        {
          "indexed": true,
          "internalType": "address",
          "name": "previousOwner",
          "type": "address"
        },
        {
          "indexed": true,
          "internalType": "address",
          "name": "newOwner",
          "type": "address"
        }
      ],
      "name": "OwnershipTransferred",
      "type": "event"
    },
    {
      "anonymous": false,
      "inputs": [
        {
          "indexed": true,
          "internalType": "address",
          "name": "from",
          "type": "address"
        },
        {
          "indexed": true,
          "internalType": "address",
          "name": "to",
          "type": "address"
        },
        {
          "indexed": true,
          "internalType": "uint256",
          "name": "tokenId",
          "type": "uint256"
        }
      ],
      "name": "Transfer",
      "type": "event"
    },
    {
      "inputs": [
        {
          "internalType": "address",
          "name": "to",
          "type": "address"
        },
        {
          "internalType": "uint256",
          "name": "tokenId",
          "type": "uint256"
        }
      ],
      "name": "approve",
      "outputs": [],
      "stateMutability": "nonpayable",
      "type": "function"
    },
    {
      "inputs": [
        {
          "internalType": "address",
          "name": "owner",
          "type": "address"
        }
      ],
      "name": "balanceOf",
      "outputs": [
        {
          "internalType": "uint256",
          "name": "",
          "type": "uint256"
        }
      ],
      "stateMutability": "view",
      "type": "function"
    },
    {
      "inputs": [
        {
          "internalType": "uint256",
          "name": "tokenId",
          "type": "uint256"
        }
      ],
      "name": "getApproved",
      "outputs": [
        {
          "internalType": "address",
          "name": "",
          "type": "address"
        }
      ],
      "stateMutability": "view",
      "type": "function"
    },
    {
      "inputs": [
        {
          "internalType": "address",
          "name": "owner",
          "type": "address"
        },
        {
          "internalType": "address",
          "name": "operator",
          "type": "address"
        }
      ],
      "name": "isApprovedForAll",
      "outputs": [
        {
          "internalType": "bool",
          "name": "",
          "type": "bool"
        }
      ],
      "stateMutability": "view",
      "type": "function"
    },
    {
      "inputs": [],
      "name": "mintRate",
      "outputs": [
        {
          "internalType": "uint256",
          "name": "",
          "type": "uint256"
        }
      ],
      "stateMutability": "view",
      "type": "function"
    },
    {
      "inputs": [],
      "name": "name",
      "outputs": [
        {
          "internalType": "string",
          "name": "",
          "type": "string"
        }
      ],
      "stateMutability": "view",
      "type": "function"
    },
    {
      "inputs": [],
      "name": "owner",
      "outputs": [
        {
          "internalType": "address",
          "name": "",
          "type": "address"
        }
      ],
      "stateMutability": "view",
      "type": "function"
    },
    {
      "inputs": [
        {
          "internalType": "uint256",
          "name": "tokenId",
          "type": "uint256"
        }
      ],
      "name": "ownerOf",
      "outputs": [
        {
          "internalType": "address",
          "name": "",
          "type": "address"
        }
      ],
      "stateMutability": "view",
      "type": "function"
    },
    {
      "inputs": [],
      "name": "renounceOwnership",
      "outputs": [],
      "stateMutability": "nonpayable",
      "type": "function"
    },
    {
      "inputs": [
        {
          "internalType": "address",
          "name": "to",
          "type": "address"
        }
      ],
      "name": "safeMint",
      "outputs": [],
      "stateMutability": "payable",
      "type": "function"
    },
    {
      "inputs": [
        {
          "internalType": "address",
          "name": "from",
          "type": "address"
        },
        {
          "internalType": "address",
          "name": "to",
          "type": "address"
        },
        {
          "internalType": "uint256",
          "name": "tokenId",
          "type": "uint256"
        }
      ],
      "name": "safeTransferFrom",
      "outputs": [],
      "stateMutability": "nonpayable",
      "type": "function"
    },
    {
      "inputs": [
        {
          "internalType": "address",
          "name": "from",
          "type": "address"
        },
        {
          "internalType": "address",
          "name": "to",
          "type": "address"
        },
        {
          "internalType": "uint256",
          "name": "tokenId",
          "type": "uint256"
        },
        {
          "internalType": "bytes",
          "name": "_data",
          "type": "bytes"
        }
      ],
      "name": "safeTransferFrom",
      "outputs": [],
      "stateMutability": "nonpayable",
      "type": "function"
    },
    {
      "inputs": [
        {
          "internalType": "address",
          "name": "operator",
          "type": "address"
        },
        {
          "internalType": "bool",
          "name": "approved",
          "type": "bool"
        }
      ],
      "name": "setApprovalForAll",
      "outputs": [],
      "stateMutability": "nonpayable",
      "type": "function"
    },
    {
      "inputs": [
        {
          "internalType": "bytes4",
          "name": "interfaceId",
          "type": "bytes4"
        }
      ],
      "name": "supportsInterface",
      "outputs": [
        {
          "internalType": "bool",
          "name": "",
          "type": "bool"
        }
      ],
      "stateMutability": "view",
      "type": "function"
    },
    {
      "inputs": [],
      "name": "symbol",
      "outputs": [
        {
          "internalType": "string",
          "name": "",
          "type": "string"
        }
      ],
      "stateMutability": "view",
      "type": "function"
    },
    {
      "inputs": [
        {
          "internalType": "uint256",
          "name": "index",
          "type": "uint256"
        }
      ],
      "name": "tokenByIndex",
      "outputs": [
        {
          "internalType": "uint256",
          "name": "",
          "type": "uint256"
        }
      ],
      "stateMutability": "view",
      "type": "function"
    },
    {
      "inputs": [
        {
          "internalType": "address",
          "name": "owner",
          "type": "address"
        },
        {
          "internalType": "uint256",
          "name": "index",
          "type": "uint256"
        }
      ],
      "name": "tokenOfOwnerByIndex",
      "outputs": [
        {
          "internalType": "uint256",
          "name": "",
          "type": "uint256"
        }
      ],
      "stateMutability": "view",
      "type": "function"
    },
    {
      "inputs": [
        {
          "internalType": "uint256",
          "name": "tokenId",
          "type": "uint256"
        }
      ],
      "name": "tokenURI",
      "outputs": [
        {
          "internalType": "string",
          "name": "",
          "type": "string"
        }
      ],
      "stateMutability": "view",
      "type": "function"
    },
    {
      "inputs": [],
      "name": "totalSupply",
      "outputs": [
        {
          "internalType": "uint256",
          "name": "",
          "type": "uint256"
        }
      ],
      "stateMutability": "view",
      "type": "function"
    },
    {
      "inputs": [
        {
          "internalType": "address",
          "name": "from",
          "type": "address"
        },
        {
          "internalType": "address",
          "name": "to",
          "type": "address"
        },
        {
          "internalType": "uint256",
          "name": "tokenId",
          "type": "uint256"
        }
      ],
      "name": "transferFrom",
      "outputs": [],
      "stateMutability": "nonpayable",
      "type": "function"
    },
    {
      "inputs": [
        {
          "internalType": "address",
          "name": "newOwner",
          "type": "address"
        }
      ],
      "name": "transferOwnership",
      "outputs": [],
      "stateMutability": "nonpayable",
      "type": "function"
    }
  ],
  "bytecode": "0x6080604052662386f26fc10000600c553480156200001c57600080fd5b506040518060400160405280600681526020017f466c6f70707900000000000000000000000000000000000000000000000000008152506040518060400160405280600481526020017f464c5059000000000000000000000000000000000000000000000000000000008152508160009080519060200190620000a1929190620001b1565b508060019080519060200190620000ba929190620001b1565b505050620000dd620000d1620000e360201b60201c565b620000eb60201b60201c565b620002c6565b600033905090565b6000600a60009054906101000a900473ffffffffffffffffffffffffffffffffffffffff16905081600a60006101000a81548173ffffffffffffffffffffffffffffffffffffffff021916908373ffffffffffffffffffffffffffffffffffffffff1602179055508173ffffffffffffffffffffffffffffffffffffffff168173ffffffffffffffffffffffffffffffffffffffff167f8be0079c531659141344cd1fd0a4f28419497f9722a3daafe3b4186f6b6457e060405160405180910390a35050565b828054620001bf9062000261565b90600052602060002090601f016020900481019282620001e357600085556200022f565b82601f10620001fe57805160ff19168380011785556200022f565b828001600101855582156200022f579182015b828111156200022e57825182559160200191906001019062000211565b5b5090506200023e919062000242565b5090565b5b808211156200025d57600081600090555060010162000243565b5090565b600060028204905060018216806200027a57607f821691505b6020821081141562000291576200029062000297565b5b50919050565b7f4e487b7100000000000000000000000000000000000000000000000000000000600052602260045260246000fd5b61354980620002d66000396000f3fe60806040526004361061012a5760003560e01c80636352211e116100ab578063a22cb4651161006f578063a22cb465146103f7578063b88d4fde14610420578063c87b56dd14610449578063ca0dcf1614610486578063e985e9c5146104b1578063f2fde38b146104ee5761012a565b80636352211e1461031057806370a082311461034d578063715018a61461038a5780638da5cb5b146103a157806395d89b41146103cc5761012a565b806323b872dd116100f257806323b872dd146102285780632f745c591461025157806340d097c31461028e57806342842e0e146102aa5780634f6ccce7146102d35761012a565b806301ffc9a71461012f57806306fdde031461016c578063081812fc14610197578063095ea7b3146101d457806318160ddd146101fd575b600080fd5b34801561013b57600080fd5b50610156600480360381019061015191906124bd565b610517565b604051610163919061292c565b60405180910390f35b34801561017857600080fd5b50610181610529565b60405161018e9190612947565b60405180910390f35b3480156101a357600080fd5b506101be60048036038101906101b9919061250f565b6105bb565b6040516101cb91906128c5565b60405180910390f35b3480156101e057600080fd5b506101fb60048036038101906101f69190612481565b610640565b005b34801561020957600080fd5b50610212610758565b60405161021f9190612bc9565b60405180910390f35b34801561023457600080fd5b5061024f600480360381019061024a919061237b565b610765565b005b34801561025d57600080fd5b5061027860048036038101906102739190612481565b6107c5565b6040516102859190612bc9565b60405180910390f35b6102a860048036038101906102a39190612316565b61086a565b005b3480156102b657600080fd5b506102d160048036038101906102cc919061237b565b6108d5565b005b3480156102df57600080fd5b506102fa60048036038101906102f5919061250f565b6108f5565b6040516103079190612bc9565b60405180910390f35b34801561031c57600080fd5b506103376004803603810190610332919061250f565b61098c565b60405161034491906128c5565b60405180910390f35b34801561035957600080fd5b50610374600480360381019061036f9190612316565b610a3e565b6040516103819190612bc9565b60405180910390f35b34801561039657600080fd5b5061039f610af6565b005b3480156103ad57600080fd5b506103b6610b7e565b6040516103c391906128c5565b60405180910390f35b3480156103d857600080fd5b506103e1610ba8565b6040516103ee9190612947565b60405180910390f35b34801561040357600080fd5b5061041e60048036038101906104199190612445565b610c3a565b005b34801561042c57600080fd5b50610447600480360381019061044291906123ca565b610dbb565b005b34801561045557600080fd5b50610470600480360381019061046b919061250f565b610e1d565b60405161047d9190612947565b60405180910390f35b34801561049257600080fd5b5061049b610ec4565b6040516104a89190612bc9565b60405180910390f35b3480156104bd57600080fd5b506104d860048036038101906104d3919061233f565b610eca565b6040516104e5919061292c565b60405180910390f35b3480156104fa57600080fd5b5061051560048036038101906105109190612316565b610f5e565b005b600061052282611056565b9050919050565b60606000805461053890612dee565b80601f016020809104026020016040519081016040528092919081815260200182805461056490612dee565b80156105b15780601f10610586576101008083540402835291602001916105b1565b820191906000526020600020905b81548152906001019060200180831161059457829003601f168201915b5050505050905090565b60006105c6826110d0565b610605576040517f08c379a00000000000000000000000000000000000000000000000000000000081526004016105fc90612ac9565b60405180910390fd5b6004600083815260200190815260200160002060009054906101000a900473ffffffffffffffffffffffffffffffffffffffff169050919050565b600061064b8261098c565b90508073ffffffffffffffffffffffffffffffffffffffff168373ffffffffffffffffffffffffffffffffffffffff1614156106bc576040517f08c379a00000000000000000000000000000000000000000000000000000000081526004016106b390612b49565b60405180910390fd5b8073ffffffffffffffffffffffffffffffffffffffff166106db61113c565b73ffffffffffffffffffffffffffffffffffffffff16148061070a57506107098161070461113c565b610eca565b5b610749576040517f08c379a000000000000000000000000000000000000000000000000000000000815260040161074090612a49565b60405180910390fd5b6107538383611144565b505050565b6000600880549050905090565b61077661077061113c565b826111fd565b6107b5576040517f08c379a00000000000000000000000000000000000000000000000000000000081526004016107ac90612b69565b60405180910390fd5b6107c08383836112db565b505050565b60006107d083610a3e565b8210610811576040517f08c379a000000000000000000000000000000000000000000000000000000000815260040161080890612969565b60405180910390fd5b600660008473ffffffffffffffffffffffffffffffffffffffff1673ffffffffffffffffffffffffffffffffffffffff168152602001908152602001600020600083815260200190815260200160002054905092915050565b600c543410156108af576040517f08c379a00000000000000000000000000000000000000000000000000000000081526004016108a690612ba9565b60405180910390fd5b60006108bb600b611537565b90506108c7600b611545565b6108d1828261155b565b5050565b6108f083838360405180602001604052806000815250610dbb565b505050565b60006108ff610758565b8210610940576040517f08c379a000000000000000000000000000000000000000000000000000000000815260040161093790612b89565b60405180910390fd5b6008828154811061097a577f4e487b7100000000000000000000000000000000000000000000000000000000600052603260045260246000fd5b90600052602060002001549050919050565b6000806002600084815260200190815260200160002060009054906101000a900473ffffffffffffffffffffffffffffffffffffffff169050600073ffffffffffffffffffffffffffffffffffffffff168173ffffffffffffffffffffffffffffffffffffffff161415610a35576040517f08c379a0000000000000000000000000000000000000000000000000000000008152600401610a2c90612a89565b60405180910390fd5b80915050919050565b60008073ffffffffffffffffffffffffffffffffffffffff168273ffffffffffffffffffffffffffffffffffffffff161415610aaf576040517f08c379a0000000000000000000000000000000000000000000000000000000008152600401610aa690612a69565b60405180910390fd5b600360008373ffffffffffffffffffffffffffffffffffffffff1673ffffffffffffffffffffffffffffffffffffffff168152602001908152602001600020549050919050565b610afe61113c565b73ffffffffffffffffffffffffffffffffffffffff16610b1c610b7e565b73ffffffffffffffffffffffffffffffffffffffff1614610b72576040517f08c379a0000000000000000000000000000000000000000000000000000000008152600401610b6990612ae9565b60405180910390fd5b610b7c6000611579565b565b6000600a60009054906101000a900473ffffffffffffffffffffffffffffffffffffffff16905090565b606060018054610bb790612dee565b80601f0160208091040260200160405190810160405280929190818152602001828054610be390612dee565b8015610c305780601f10610c0557610100808354040283529160200191610c30565b820191906000526020600020905b815481529060010190602001808311610c1357829003601f168201915b5050505050905090565b610c4261113c565b73ffffffffffffffffffffffffffffffffffffffff168273ffffffffffffffffffffffffffffffffffffffff161415610cb0576040517f08c379a0000000000000000000000000000000000000000000000000000000008152600401610ca790612a09565b60405180910390fd5b8060056000610cbd61113c565b73ffffffffffffffffffffffffffffffffffffffff1673ffffffffffffffffffffffffffffffffffffffff16815260200190815260200160002060008473ffffffffffffffffffffffffffffffffffffffff1673ffffffffffffffffffffffffffffffffffffffff16815260200190815260200160002060006101000a81548160ff0219169083151502179055508173ffffffffffffffffffffffffffffffffffffffff16610d6a61113c565b73ffffffffffffffffffffffffffffffffffffffff167f17307eab39ab6107e8899845ad3d59bd9653f200f220920489ca2b5937696c3183604051610daf919061292c565b60405180910390a35050565b610dcc610dc661113c565b836111fd565b610e0b576040517f08c379a0000000000000000000000000000000000000000000000000000000008152600401610e0290612b69565b60405180910390fd5b610e178484848461163f565b50505050565b6060610e28826110d0565b610e67576040517f08c379a0000000000000000000000000000000000000000000000000000000008152600401610e5e90612b29565b60405180910390fd5b6000610e7161169b565b90506000815111610e915760405180602001604052806000815250610ebc565b80610e9b846116d8565b604051602001610eac9291906128a1565b6040516020818303038152906040525b915050919050565b600c5481565b6000600560008473ffffffffffffffffffffffffffffffffffffffff1673ffffffffffffffffffffffffffffffffffffffff16815260200190815260200160002060008373ffffffffffffffffffffffffffffffffffffffff1673ffffffffffffffffffffffffffffffffffffffff16815260200190815260200160002060009054906101000a900460ff16905092915050565b610f6661113c565b73ffffffffffffffffffffffffffffffffffffffff16610f84610b7e565b73ffffffffffffffffffffffffffffffffffffffff1614610fda576040517f08c379a0000000000000000000000000000000000000000000000000000000008152600401610fd190612ae9565b60405180910390fd5b600073ffffffffffffffffffffffffffffffffffffffff168173ffffffffffffffffffffffffffffffffffffffff16141561104a576040517f08c379a0000000000000000000000000000000000000000000000000000000008152600401611041906129a9565b60405180910390fd5b61105381611579565b50565b60007f780e9d63000000000000000000000000000000000000000000000000000000007bffffffffffffffffffffffffffffffffffffffffffffffffffffffff1916827bffffffffffffffffffffffffffffffffffffffffffffffffffffffff191614806110c957506110c882611885565b5b9050919050565b60008073ffffffffffffffffffffffffffffffffffffffff166002600084815260200190815260200160002060009054906101000a900473ffffffffffffffffffffffffffffffffffffffff1673ffffffffffffffffffffffffffffffffffffffff1614159050919050565b600033905090565b816004600083815260200190815260200160002060006101000a81548173ffffffffffffffffffffffffffffffffffffffff021916908373ffffffffffffffffffffffffffffffffffffffff160217905550808273ffffffffffffffffffffffffffffffffffffffff166111b78361098c565b73ffffffffffffffffffffffffffffffffffffffff167f8c5be1e5ebec7d5bd14f71427d1e84f3dd0314c0f7b2291e5b200ac8c7c3b92560405160405180910390a45050565b6000611208826110d0565b611247576040517f08c379a000000000000000000000000000000000000000000000000000000000815260040161123e90612a29565b60405180910390fd5b60006112528361098c565b90508073ffffffffffffffffffffffffffffffffffffffff168473ffffffffffffffffffffffffffffffffffffffff1614806112c157508373ffffffffffffffffffffffffffffffffffffffff166112a9846105bb565b73ffffffffffffffffffffffffffffffffffffffff16145b806112d257506112d18185610eca565b5b91505092915050565b8273ffffffffffffffffffffffffffffffffffffffff166112fb8261098c565b73ffffffffffffffffffffffffffffffffffffffff1614611351576040517f08c379a000000000000000000000000000000000000000000000000000000000815260040161134890612b09565b60405180910390fd5b600073ffffffffffffffffffffffffffffffffffffffff168273ffffffffffffffffffffffffffffffffffffffff1614156113c1576040517f08c379a00000000000000000000000000000000000000000000000000000000081526004016113b8906129e9565b60405180910390fd5b6113cc838383611967565b6113d7600082611144565b6001600360008573ffffffffffffffffffffffffffffffffffffffff1673ffffffffffffffffffffffffffffffffffffffff16815260200190815260200160002060008282546114279190612d04565b925050819055506001600360008473ffffffffffffffffffffffffffffffffffffffff1673ffffffffffffffffffffffffffffffffffffffff168152602001908152602001600020600082825461147e9190612c7d565b92505081905550816002600083815260200190815260200160002060006101000a81548173ffffffffffffffffffffffffffffffffffffffff021916908373ffffffffffffffffffffffffffffffffffffffff160217905550808273ffffffffffffffffffffffffffffffffffffffff168473ffffffffffffffffffffffffffffffffffffffff167fddf252ad1be2c89b69c2b068fc378daa952ba7f163c4a11628f55a4df523b3ef60405160405180910390a4505050565b600081600001549050919050565b6001816000016000828254019250508190555050565b611575828260405180602001604052806000815250611977565b5050565b6000600a60009054906101000a900473ffffffffffffffffffffffffffffffffffffffff16905081600a60006101000a81548173ffffffffffffffffffffffffffffffffffffffff021916908373ffffffffffffffffffffffffffffffffffffffff1602179055508173ffffffffffffffffffffffffffffffffffffffff168173ffffffffffffffffffffffffffffffffffffffff167f8be0079c531659141344cd1fd0a4f28419497f9722a3daafe3b4186f6b6457e060405160405180910390a35050565b61164a8484846112db565b611656848484846119d2565b611695576040517f08c379a000000000000000000000000000000000000000000000000000000000815260040161168c90612989565b60405180910390fd5b50505050565b60606040518060400160405280601a81526020017f68747470733a2f2f666c6f707079746573742f746f6b656e732f000000000000815250905090565b60606000821415611720576040518060400160405280600181526020017f30000000000000000000000000000000000000000000000000000000000000008152509050611880565b600082905060005b6000821461175257808061173b90612e51565b915050600a8261174b9190612cd3565b9150611728565b60008167ffffffffffffffff811115611794577f4e487b7100000000000000000000000000000000000000000000000000000000600052604160045260246000fd5b6040519080825280601f01601f1916602001820160405280156117c65781602001600182028036833780820191505090505b5090505b60008514611879576001826117df9190612d04565b9150600a856117ee9190612e9a565b60306117fa9190612c7d565b60f81b818381518110611836577f4e487b7100000000000000000000000000000000000000000000000000000000600052603260045260246000fd5b60200101907effffffffffffffffffffffffffffffffffffffffffffffffffffffffffffff1916908160001a905350600a856118729190612cd3565b94506117ca565b8093505050505b919050565b60007f80ac58cd000000000000000000000000000000000000000000000000000000007bffffffffffffffffffffffffffffffffffffffffffffffffffffffff1916827bffffffffffffffffffffffffffffffffffffffffffffffffffffffff1916148061195057507f5b5e139f000000000000000000000000000000000000000000000000000000007bffffffffffffffffffffffffffffffffffffffffffffffffffffffff1916827bffffffffffffffffffffffffffffffffffffffffffffffffffffffff1916145b80611960575061195f82611b69565b5b9050919050565b611972838383611bd3565b505050565b6119818383611ce7565b61198e60008484846119d2565b6119cd576040517f08c379a00000000000000000000000000000000000000000000000000000000081526004016119c490612989565b60405180910390fd5b505050565b60006119f38473ffffffffffffffffffffffffffffffffffffffff16611eb5565b15611b5c578373ffffffffffffffffffffffffffffffffffffffff1663150b7a02611a1c61113c565b8786866040518563ffffffff1660e01b8152600401611a3e94939291906128e0565b602060405180830381600087803b158015611a5857600080fd5b505af1925050508015611a8957506040513d601f19601f82011682018060405250810190611a8691906124e6565b60015b611b0c573d8060008114611ab9576040519150601f19603f3d011682016040523d82523d6000602084013e611abe565b606091505b50600081511415611b04576040517f08c379a0000000000000000000000000000000000000000000000000000000008152600401611afb90612989565b60405180910390fd5b805181602001fd5b63150b7a0260e01b7bffffffffffffffffffffffffffffffffffffffffffffffffffffffff1916817bffffffffffffffffffffffffffffffffffffffffffffffffffffffff191614915050611b61565b600190505b949350505050565b60007f01ffc9a7000000000000000000000000000000000000000000000000000000007bffffffffffffffffffffffffffffffffffffffffffffffffffffffff1916827bffffffffffffffffffffffffffffffffffffffffffffffffffffffff1916149050919050565b611bde838383611ec8565b600073ffffffffffffffffffffffffffffffffffffffff168373ffffffffffffffffffffffffffffffffffffffff161415611c2157611c1c81611ecd565b611c60565b8173ffffffffffffffffffffffffffffffffffffffff168373ffffffffffffffffffffffffffffffffffffffff1614611c5f57611c5e8382611f16565b5b5b600073ffffffffffffffffffffffffffffffffffffffff168273ffffffffffffffffffffffffffffffffffffffff161415611ca357611c9e81612083565b611ce2565b8273ffffffffffffffffffffffffffffffffffffffff168273ffffffffffffffffffffffffffffffffffffffff1614611ce157611ce082826121c6565b5b5b505050565b600073ffffffffffffffffffffffffffffffffffffffff168273ffffffffffffffffffffffffffffffffffffffff161415611d57576040517f08c379a0000000000000000000000000000000000000000000000000000000008152600401611d4e90612aa9565b60405180910390fd5b611d60816110d0565b15611da0576040517f08c379a0000000000000000000000000000000000000000000000000000000008152600401611d97906129c9565b60405180910390fd5b611dac60008383611967565b6001600360008473ffffffffffffffffffffffffffffffffffffffff1673ffffffffffffffffffffffffffffffffffffffff1681526020019081526020016000206000828254611dfc9190612c7d565b92505081905550816002600083815260200190815260200160002060006101000a81548173ffffffffffffffffffffffffffffffffffffffff021916908373ffffffffffffffffffffffffffffffffffffffff160217905550808273ffffffffffffffffffffffffffffffffffffffff16600073ffffffffffffffffffffffffffffffffffffffff167fddf252ad1be2c89b69c2b068fc378daa952ba7f163c4a11628f55a4df523b3ef60405160405180910390a45050565b600080823b905060008111915050919050565b505050565b6008805490506009600083815260200190815260200160002081905550600881908060018154018082558091505060019003906000526020600020016000909190919091505550565b60006001611f2384610a3e565b611f2d9190612d04565b9050600060076000848152602001908152602001600020549050818114612012576000600660008673ffffffffffffffffffffffffffffffffffffffff1673ffffffffffffffffffffffffffffffffffffffff168152602001908152602001600020600084815260200190815260200160002054905080600660008773ffffffffffffffffffffffffffffffffffffffff1673ffffffffffffffffffffffffffffffffffffffff168152602001908152602001600020600084815260200190815260200160002081905550816007600083815260200190815260200160002081905550505b6007600084815260200190815260200160002060009055600660008573ffffffffffffffffffffffffffffffffffffffff1673ffffffffffffffffffffffffffffffffffffffff16815260200190815260200160002060008381526020019081526020016000206000905550505050565b600060016008805490506120979190612d04565b90506000600960008481526020019081526020016000205490506000600883815481106120ed577f4e487b7100000000000000000000000000000000000000000000000000000000600052603260045260246000fd5b906000526020600020015490508060088381548110612135577f4e487b7100000000000000000000000000000000000000000000000000000000600052603260045260246000fd5b9060005260206000200181905550816009600083815260200190815260200160002081905550600960008581526020019081526020016000206000905560088054806121aa577f4e487b7100000000000000000000000000000000000000000000000000000000600052603160045260246000fd5b6001900381819060005260206000200160009055905550505050565b60006121d183610a3e565b905081600660008573ffffffffffffffffffffffffffffffffffffffff1673ffffffffffffffffffffffffffffffffffffffff168152602001908152602001600020600083815260200190815260200160002081905550806007600084815260200190815260200160002081905550505050565b600061225861225384612c09565b612be4565b90508281526020810184848401111561227057600080fd5b61227b848285612dac565b509392505050565b600081359050612292816134b7565b92915050565b6000813590506122a7816134ce565b92915050565b6000813590506122bc816134e5565b92915050565b6000815190506122d1816134e5565b92915050565b600082601f8301126122e857600080fd5b81356122f8848260208601612245565b91505092915050565b600081359050612310816134fc565b92915050565b60006020828403121561232857600080fd5b600061233684828501612283565b91505092915050565b6000806040838503121561235257600080fd5b600061236085828601612283565b925050602061237185828601612283565b9150509250929050565b60008060006060848603121561239057600080fd5b600061239e86828701612283565b93505060206123af86828701612283565b92505060406123c086828701612301565b9150509250925092565b600080600080608085870312156123e057600080fd5b60006123ee87828801612283565b94505060206123ff87828801612283565b935050604061241087828801612301565b925050606085013567ffffffffffffffff81111561242d57600080fd5b612439878288016122d7565b91505092959194509250565b6000806040838503121561245857600080fd5b600061246685828601612283565b925050602061247785828601612298565b9150509250929050565b6000806040838503121561249457600080fd5b60006124a285828601612283565b92505060206124b385828601612301565b9150509250929050565b6000602082840312156124cf57600080fd5b60006124dd848285016122ad565b91505092915050565b6000602082840312156124f857600080fd5b6000612506848285016122c2565b91505092915050565b60006020828403121561252157600080fd5b600061252f84828501612301565b91505092915050565b61254181612d38565b82525050565b61255081612d4a565b82525050565b600061256182612c3a565b61256b8185612c50565b935061257b818560208601612dbb565b61258481612f87565b840191505092915050565b600061259a82612c45565b6125a48185612c61565b93506125b4818560208601612dbb565b6125bd81612f87565b840191505092915050565b60006125d382612c45565b6125dd8185612c72565b93506125ed818560208601612dbb565b80840191505092915050565b6000612606602b83612c61565b915061261182612f98565b604082019050919050565b6000612629603283612c61565b915061263482612fe7565b604082019050919050565b600061264c602683612c61565b915061265782613036565b604082019050919050565b600061266f601c83612c61565b915061267a82613085565b602082019050919050565b6000612692602483612c61565b915061269d826130ae565b604082019050919050565b60006126b5601983612c61565b91506126c0826130fd565b602082019050919050565b60006126d8602c83612c61565b91506126e382613126565b604082019050919050565b60006126fb603883612c61565b915061270682613175565b604082019050919050565b600061271e602a83612c61565b9150612729826131c4565b604082019050919050565b6000612741602983612c61565b915061274c82613213565b604082019050919050565b6000612764602083612c61565b915061276f82613262565b602082019050919050565b6000612787602c83612c61565b91506127928261328b565b604082019050919050565b60006127aa602083612c61565b91506127b5826132da565b602082019050919050565b60006127cd602983612c61565b91506127d882613303565b604082019050919050565b60006127f0602f83612c61565b91506127fb82613352565b604082019050919050565b6000612813602183612c61565b915061281e826133a1565b604082019050919050565b6000612836603183612c61565b9150612841826133f0565b604082019050919050565b6000612859602c83612c61565b91506128648261343f565b604082019050919050565b600061287c601983612c61565b91506128878261348e565b602082019050919050565b61289b81612da2565b82525050565b60006128ad82856125c8565b91506128b982846125c8565b91508190509392505050565b60006020820190506128da6000830184612538565b92915050565b60006080820190506128f56000830187612538565b6129026020830186612538565b61290f6040830185612892565b81810360608301526129218184612556565b905095945050505050565b60006020820190506129416000830184612547565b92915050565b60006020820190508181036000830152612961818461258f565b905092915050565b60006020820190508181036000830152612982816125f9565b9050919050565b600060208201905081810360008301526129a28161261c565b9050919050565b600060208201905081810360008301526129c28161263f565b9050919050565b600060208201905081810360008301526129e281612662565b9050919050565b60006020820190508181036000830152612a0281612685565b9050919050565b60006020820190508181036000830152612a22816126a8565b9050919050565b60006020820190508181036000830152612a42816126cb565b9050919050565b60006020820190508181036000830152612a62816126ee565b9050919050565b60006020820190508181036000830152612a8281612711565b9050919050565b60006020820190508181036000830152612aa281612734565b9050919050565b60006020820190508181036000830152612ac281612757565b9050919050565b60006020820190508181036000830152612ae28161277a565b9050919050565b60006020820190508181036000830152612b028161279d565b9050919050565b60006020820190508181036000830152612b22816127c0565b9050919050565b60006020820190508181036000830152612b42816127e3565b9050919050565b60006020820190508181036000830152612b6281612806565b9050919050565b60006020820190508181036000830152612b8281612829565b9050919050565b60006020820190508181036000830152612ba28161284c565b9050919050565b60006020820190508181036000830152612bc28161286f565b9050919050565b6000602082019050612bde6000830184612892565b92915050565b6000612bee612bff565b9050612bfa8282612e20565b919050565b6000604051905090565b600067ffffffffffffffff821115612c2457612c23612f58565b5b612c2d82612f87565b9050602081019050919050565b600081519050919050565b600081519050919050565b600082825260208201905092915050565b600082825260208201905092915050565b600081905092915050565b6000612c8882612da2565b9150612c9383612da2565b9250827fffffffffffffffffffffffffffffffffffffffffffffffffffffffffffffffff03821115612cc857612cc7612ecb565b5b828201905092915050565b6000612cde82612da2565b9150612ce983612da2565b925082612cf957612cf8612efa565b5b828204905092915050565b6000612d0f82612da2565b9150612d1a83612da2565b925082821015612d2d57612d2c612ecb565b5b828203905092915050565b6000612d4382612d82565b9050919050565b60008115159050919050565b60007fffffffff0000000000000000000000000000000000000000000000000000000082169050919050565b600073ffffffffffffffffffffffffffffffffffffffff82169050919050565b6000819050919050565b82818337600083830152505050565b60005b83811015612dd9578082015181840152602081019050612dbe565b83811115612de8576000848401525b50505050565b60006002820490506001821680612e0657607f821691505b60208210811415612e1a57612e19612f29565b5b50919050565b612e2982612f87565b810181811067ffffffffffffffff82111715612e4857612e47612f58565b5b80604052505050565b6000612e5c82612da2565b91507fffffffffffffffffffffffffffffffffffffffffffffffffffffffffffffffff821415612e8f57612e8e612ecb565b5b600182019050919050565b6000612ea582612da2565b9150612eb083612da2565b925082612ec057612ebf612efa565b5b828206905092915050565b7f4e487b7100000000000000000000000000000000000000000000000000000000600052601160045260246000fd5b7f4e487b7100000000000000000000000000000000000000000000000000000000600052601260045260246000fd5b7f4e487b7100000000000000000000000000000000000000000000000000000000600052602260045260246000fd5b7f4e487b7100000000000000000000000000000000000000000000000000000000600052604160045260246000fd5b6000601f19601f8301169050919050565b7f455243373231456e756d657261626c653a206f776e657220696e646578206f7560008201527f74206f6620626f756e6473000000000000000000000000000000000000000000602082015250565b7f4552433732313a207472616e7366657220746f206e6f6e20455243373231526560008201527f63656976657220696d706c656d656e7465720000000000000000000000000000602082015250565b7f4f776e61626c653a206e6577206f776e657220697320746865207a65726f206160008201527f6464726573730000000000000000000000000000000000000000000000000000602082015250565b7f4552433732313a20746f6b656e20616c7265616479206d696e74656400000000600082015250565b7f4552433732313a207472616e7366657220746f20746865207a65726f2061646460008201527f7265737300000000000000000000000000000000000000000000000000000000602082015250565b7f4552433732313a20617070726f766520746f2063616c6c657200000000000000600082015250565b7f4552433732313a206f70657261746f7220717565727920666f72206e6f6e657860008201527f697374656e7420746f6b656e0000000000000000000000000000000000000000602082015250565b7f4552433732313a20617070726f76652063616c6c6572206973206e6f74206f7760008201527f6e6572206e6f7220617070726f76656420666f7220616c6c0000000000000000602082015250565b7f4552433732313a2062616c616e636520717565727920666f7220746865207a6560008201527f726f206164647265737300000000000000000000000000000000000000000000602082015250565b7f4552433732313a206f776e657220717565727920666f72206e6f6e657869737460008201527f656e7420746f6b656e0000000000000000000000000000000000000000000000602082015250565b7f4552433732313a206d696e7420746f20746865207a65726f2061646472657373600082015250565b7f4552433732313a20617070726f76656420717565727920666f72206e6f6e657860008201527f697374656e7420746f6b656e0000000000000000000000000000000000000000602082015250565b7f4f776e61626c653a2063616c6c6572206973206e6f7420746865206f776e6572600082015250565b7f4552433732313a207472616e73666572206f6620746f6b656e2074686174206960008201527f73206e6f74206f776e0000000000000000000000000000000000000000000000602082015250565b7f4552433732314d657461646174613a2055524920717565727920666f72206e6f60008201527f6e6578697374656e7420746f6b656e0000000000000000000000000000000000602082015250565b7f4552433732313a20617070726f76616c20746f2063757272656e74206f776e6560008201527f7200000000000000000000000000000000000000000000000000000000000000602082015250565b7f4552433732313a207472616e736665722063616c6c6572206973206e6f74206f60008201527f776e6572206e6f7220617070726f766564000000000000000000000000000000602082015250565b7f455243373231456e756d657261626c653a20676c6f62616c20696e646578206f60008201527f7574206f6620626f756e64730000000000000000000000000000000000000000602082015250565b7f746865206d696e696d756d20707269636520697320302e303100000000000000600082015250565b6134c081612d38565b81146134cb57600080fd5b50565b6134d781612d4a565b81146134e257600080fd5b50565b6134ee81612d56565b81146134f957600080fd5b50565b61350581612da2565b811461351057600080fd5b5056fea26469706673582212201a6590c5f59886b525ec5cd344553c623f1fcb779b9c24044edc2c0d236df77964736f6c63430008020033",
  "linkReferences": {},
  "deployedLinkReferences": {}
}